{
  "transactions": [
    {
      "hash": "0x95e1bfc4c67daa45bcc061ca30d9b6f5f629563a7edb5a83157de3305b92f9a6",
      "transactionType": "CALL",
      "contractName": null,
      "contractAddress": "0x0c29bc1be1d3ee95a9f498af54300c262abbebee",
      "function": "mintNFT(string)",
      "arguments": [
        "ipfs://bafybeig37ioir76s7mg5oobetncojcm3c3hxasyd4rvid4jqhy4gkaheg4/?filename=0-PUG.json"
      ],
      "transaction": {
        "from": "0x7cddb55deeda4bb3f0ce3564ea7c79d17ccecbdf",
        "to": "0x0c29bc1be1d3ee95a9f498af54300c262abbebee",
        "gas": "0x414a6",
        "value": "0x0",
        "input": "0xfb37e88300000000000000000000000000000000000000000000000000000000000000200000000000000000000000000000000000000000000000000000000000000057697066733a2f2f62616679626569673337696f6972373673376d67356f6f6265746e636f6a636d3363336878617379643472766964346a71687934676b61686567342f3f66696c656e616d653d302d5055472e6a736f6e000000000000000000",
        "nonce": "0x23",
        "chainId": "0xaa36a7"
      },
      "additionalContracts": [],
      "isFixedGasLimit": false
    }
  ],
  "receipts": [
    {
      "status": "0x1",
      "cumulativeGasUsed": "0x137a50f",
      "logs": [
        {
          "address": "0x0c29bc1be1d3ee95a9f498af54300c262abbebee",
          "topics": [
            "0xddf252ad1be2c89b69c2b068fc378daa952ba7f163c4a11628f55a4df523b3ef",
            "0x0000000000000000000000000000000000000000000000000000000000000000",
            "0x0000000000000000000000007cddb55deeda4bb3f0ce3564ea7c79d17ccecbdf",
            "0x0000000000000000000000000000000000000000000000000000000000000000"
          ],
          "data": "0x",
          "blockHash": "0xe3236bcbafd9ede15360c1f04f884d52ff9c83eb0076c3e87cb355804cebc88f",
          "blockNumber": "0x7b1c72",
          "blockTimestamp": "0x67f36aac",
          "transactionHash": "0x95e1bfc4c67daa45bcc061ca30d9b6f5f629563a7edb5a83157de3305b92f9a6",
          "transactionIndex": "0xa3",
          "logIndex": "0x10d",
          "removed": false
        }
      ],
      "logsBloom": "0x00000000000000000000000000000000000001000000000000000000000000000000000000000000000000000000000000000000000000010000000000000000000000000000000000000008000000000000000000000000000000000000000000000000820000000100000000000800000000000000000000000010000000000000000000000000000000000000000000000000000000001000000000000000000000000000000000000000000000000000000000000000000000000000000000000002000000000000000000004000000000000000000000000000000020000000000000000000000000000000000000000000000000000000000000000000",
      "type": "0x2",
      "transactionHash": "0x95e1bfc4c67daa45bcc061ca30d9b6f5f629563a7edb5a83157de3305b92f9a6",
      "transactionIndex": "0xa3",
      "blockHash": "0xe3236bcbafd9ede15360c1f04f884d52ff9c83eb0076c3e87cb355804cebc88f",
      "blockNumber": "0x7b1c72",
      "gasUsed": "0x2ca4b",
      "effectiveGasPrice": "0x217313b",
      "from": "0x7cddb55deeda4bb3f0ce3564ea7c79d17ccecbdf",
      "to": "0x0c29bc1be1d3ee95a9f498af54300c262abbebee",
      "contractAddress": null
    }
  ],
  "libraries": [],
  "pending": [],
  "returns": {},
  "timestamp": 1744005804,
  "chain": 11155111,
  "commit": "864a0f8"
}